:0400000007EF00F016
:10000800658264ED12F057EF16F0980E0001A86FA4
:10001800000EA96F48EF05F0250EC019D8B40AD014
:1000280094C0D9FF95C0DAFFC0C0DFFF944B952B71
:1000380048EF05F0000EB96F000EB86F000EAD6FF7
:10004800000EAC6F96C0F6FF97C0F7FF0800F5509A
:1000580022EC17F0D8A034D0000E0001B96F000EC2
:10006800B86FB8C01BF0B9C01CF0000E1E6E0A0EA7
:100078001D6ED9EC16F01BC0B8F01CC0B9F0D00E3C
:1000880000019E6FFF0E9F6F96C0F6FF97C0F7FFA7
:100098000800F550A06FA16B9E51A0279F51A12386
:1000A800A051B827A151B923964B972B96C0F6FFBC
:1000B80097C0F7FF0800F55022EC17F0D8B0D1D759
:1000C80096C0F6FF97C0F7FF0800F5502E0AD8A48F
:1000D80030D00001AD8D964B972B000EBF6F000EF0
:1000E800BE6F1CD0BEC01BF0BFC01CF0000E1E6E41
:1000F8000A0E1D6ED9EC16F096C0F6FF97C0F7FFF2
:100108000800F5501B26000E1C22D00E1B240001EF
:10011800BE6FFF0E1C20BF6F964B972B96C0F6FF45
:1001280097C0F7FF0800F55022EC17F0D8A05AD076
:10013800D9D7000E0001BF6F000EBE6FAD8952D037
:10014800AD8568D0BE51BF11D8B40AD0AA51BE5DE2
:10015800AB51BF59D8B004D0BEC0AAF0BFC0ABF0F5
:10016800B851AA5DB951AB59D8B005D0AA51B85FFA
:10017800AB51B95B0DD0000EB96F000EB86F08D047
:1001880094C0D9FF95C0DAFF200EDF6E944B952BF3
:10019800B807D8A0B907B829F3E1B929D8B40FD05E
:1001A800EFD7A6C0D9FFA7C0DAFF94C0E1FF95C07A
:1001B800E2FFDFCFE7FFA64BA72B944B952BAA07AF
:1001C800D8A0AB07AA29EDE1AB29D8B448EF05F0D0
:1001D800E8D7C00EA66F000EA76F000EAB6F010E1A
:1001E800AA6FB0D796C0F6FF97C0F7FF0001964BED
:1001F800972B0800F5CFC0F0C051000AD8B455EFCE
:1002080005F0640AD8B406D0020AD8B499D70F0A00
:10021800D8A4DFD7070EAD15D8B425D3ADA904D01F
:10022800000EBF6F060EBE6FA8C0D9FFA9C0DAFFC7
:10023800DECFBAF0DECFBBF0DECFBCF0DECFBDF054
:10024800040EA827000EA923BDAF15D0BAC02FF001
:10025800BBC030F0BCC031F0BDC032F094EC16F039
:100268002FC0BAF030C0BBF031C0BCF032C0BDF016
:10027800030E0001AC13000EB76F000EB66FBA5133
:10028800BB11BC11BD11D8B483D0BC35BD35820FAC
:10029800B66FB76BFF0EB723B607D8A0B707B6C0BF
:1002A8001BF0B7C01CF0000E1E6E030E1D6ED9ECBD
:1002B80016F01BC0B6F01CC0B7F0B6C021F0B7C02E
:1002C80022F0000E246E0A0E236EF3EC13F021C008
:1002D800B6F022C0B7F00001B7AF03D0B607D8A078
:1002E800B707B6510008F9EC07F042C0AEF043C0BA
:1002F800AFF044C0B0F045C0B1F0AEC029F0AFC017
:100308002AF0B0C02BF0B1C02CF0BAC02DF0BBC0A1
:100318002EF0BCC02FF0BDC030F015EC0AF029C09B
:10032800AEF02AC0AFF02BC0B0F02CC0B1F0AEC018
:1003380088F0AFC089F0B0C08AF0B1C08BF0000E71
:1003480000018C6F000E8D6F800E8E6F3F0E8F6FC9
:10035800D3EC11F00001D8B004D0B607D8A0B70785
:1003680017D0AEC088F0AFC089F0B0C08AF0B1C075
:100378008BF0000E8C6F000E8D6F200E8E6F410E6D
:100388008F6FD3EC11F00001D8A002D0B64BB72B79
:10039800BFBF06D0BF5121E10D0EBE5DD8B01DD044
:1003A800BAC04FF0BBC050F0BCC051F0BDC052F055
:1003B800BE51B9EC0EF042C053F043C054F044C0F3
:1003C80055F045C056F0BDEC0BF04FC0BAF050C028
:1003D800BBF051C0BCF052C0BDF00001B7BF06D0A1
:1003E800B75122E10A0EB65DD8B01ED0BA51BB1182
:1003F800BC11BD11D8B462D0BAC088F0BBC089F0B6
:10040800BCC08AF0BDC08BF0E4EC12F0000188514A
:1004180089118A118B11D8B4B7BF50D0B75104E1F4
:10042800020EB65DD8A04AD0AEC088F0AFC089F041
:10043800B0C08AF0B1C08BF05F0E8C6F700E8D6FFC
:10044800890E8E6F400E8F6FD3EC11F00001D8B07B
:1004580002D0F70E01D0F80EB627FF0EB723B6511B
:10046800F9EC07F042C0AEF043C0AFF044C0B0F0C2
:1004780045C0B1F0BAC01BF0BBC01CF0BCC01DF039
:10048800BDC01EF0AEC01FF0AFC020F0B0C021F05C
:10049800B1C022F03FEC11F01BC0B2F01CC0B3F0A9
:1004A8001DC0B4F01EC0B5F0000E0001BA6F000EFA
:1004B800BB6F000EBC6F000EBD6F3CD0BAC088F099
:1004C800BBC089F0BCC08AF0BDC08BF0E4EC12F070
:1004D80088C0B2F089C0B3F08AC0B4F08BC0B5F060
:1004E800BAC088F0BBC089F0BCC08AF0BDC08BF030
:1004F800B2C021F0B3C022F0B4C023F0B5C024F0DC
:10050800000EFEEC0FF021C08CF022C08DF023C04D
:100518008EF024C08FF0EEEC15F088C0BAF089C0D8
:10052800BBF08AC0BCF08BC0BDF0000E0001B76FF5
:10053800000EB66F010EC06F0A0EC019D8B418D0DD
:10054800C051040D630EF324F66EFF0EF420F76E0F
:100558000900F550B25D0900F550B3590900F5508E
:10056800B4590900F550B559D8A002D0C02BE4D72A
:10057800C0C09EF09F6B9EBF9F07BE519E27BF5174
:100588009F23B6519E27B7519F239E51B85F9F5115
:10059800B95BBE51BF11D8B403D0B807D8A0B9070A
:1005A800030EAC159E6F000EAD159F6F9E519F11E7
:1005B800D8B40CD008D094C0D9FF95C0DAFF200E6B
:1005C800DF6E944B952BB807D8A0B907B9BF05D0F3
:1005D800B951F1E1B805D8B0EED7030EAC159E6F4E
:1005E800000EAD159F6F9E519F11D8B450D094C086
:1005F800D9FF95C0DAFF2D0E47D0B2C01BF0B3C0AB
:100608001CF0B4C01DF0B5C01EF0C051040D630E3F
:10061800F324F66EFF0EF420F76E0900F5CF1FF0F5
:100628000900F5CF20F00900F5CF21F00A00F5CF39
:1006380022F035EC14F01BC0AEF01CC0AFF01DC0AA
:10064800B0F01EC0B1F0AEC028F0AFC029F0B0C005
:100658002AF0B1C02BF00A0E2C6E000E2D6E000E83
:100668002E6E000E2F6EE6EC14F028C0AEF029C0F6
:10067800AFF02AC0B0F02BC0B1F00001AE51300F7E
:1006880094C0D9FF95C0DAFFDF6E944B952BC00755
:10069800C029D8B40CD0B1D794C0D9FF95C0DAFF1F
:1006A800300EDF6E944B952BB607D8A0B707B7BFAF
:1006B80005D0B751F1E1B605D8B0EED7BFBF09D024
:1006C800BF5104E1090EBE5DD8A003D0080EC06F6B
:1006D80002D0BEC0C0F0C051BE5F000EC0BFFF0E4A
:1006E800BF5BC051D8B408D094C0D9FF95C0DAFF19
:1006F8002E0EDF6E944B952BC051F9EC07F042C0DB
:10070800A2F043C0A3F044C0A4F045C0A5F0BAC00D
:100718002DF0BBC02EF0BCC02FF0BDC030F0A2C081
:1007280029F0A3C02AF0A4C02BF0A5C02CF015EC2A
:100738000AF029C088F02AC089F02BC08AF02CC0A2
:100748008BF0E4EC12F088C0B2F089C0B3F08AC034
:10075800B4F08BC0B5F071D0B2C01BF0B3C01CF0C0
:10076800B4C01DF0B5C01EF00001C051040D630EE9
:10077800F324F66EFF0EF420F76E0900F5CF1FF094
:100788000900F5CF20F00900F5CF21F00A00F5CFD8
:1007980022F035EC14F01BC0AEF01CC0AFF01DC049
:1007A800B0F01EC0B1F0AEC028F0AFC029F0B0C0A4
:1007B8002AF0B1C02BF00A0E2C6E000E2D6E000E22
:1007C8002E6E000E2F6EE6EC14F028C0AEF029C095
:1007D800AFF02AC0B0F02BC0B1F00001AE51300F1D
:1007E80094C0D9FF95C0DAFFDF6E944B952BB2C049
:1007F80028F0B3C029F0B4C02AF0B5C02BF0C0511E
:10080800040D630EF324F66EFF0EF420F76E090054
:10081800F5CF2CF00900F5CF2DF00900F5CF2EF01B
:100828000A00F5CF2FF0E6EC14F028C0B2F029C08A
:10083800B3F02AC0B4F02BC0B5F00001C007C0293E
:10084800D8B40CD089D794C0D9FF95C0DAFF300E40
:10085800DF6E944B952BBE07D8A0BF07BE51BF11C2
:10086800D8B412D1F0D7A8C0D9FFA9C0DAFFDECF1B
:10087800B2F0DDCFB3F0000EB3BFFF0EB46FB56FAB
:10088800020EA827000EA923B5AF0AD0030EAC1399
:10089800B51FB41FB31FB26D000EB323B423B52325
:1008A800BE51BF11D8A408D0B251B311B411B511BB
:1008B800D8A402D0BE4BBF2B010EC06F0A0EC019C0
:1008C800D8B418D0C051040D630EF324F66EFF0E91
:1008D800F420F76E0900F550B25D0900F550B359E0
:1008E8000900F550B4590900F550B559D8A002D0FF
:1008F800C02BE4D7800EC0BF7F0E9E6FBE51C05D77
:10090800BF51800A9E59D8B003D0BEC0C0F010D0E5
:10091800BF51800A9E6FC051BE5D800EC0BF7F0E62
:100928009E59D8B005D0C051BE6FBF6BBEBFBF07C0
:10093800B851B911D8B40DD0030EAC159E6F000E86
:10094800AD159F6F9E519F11D8B403D0B807D8A09A
:10095800B907ADAD13D0B851BE5DBF51800A9E6FC7
:10096800B951800A9E59D8B005D0BE51B85FBF5161
:10097800B95B04D0000EB96F000EB86F800EC0BF0F
:100988007F0E9E6FB851C05DB951800A9E59D8B08C
:1009980007D0C051B85F000EC0BFFF0EB95B04D0CE
:1009A800000EB96F000EB86FB851B911D8B40FD096
:1009B80094C0D9FF95C0DAFF200EDF6E944B952BBB
:1009C800B807D8A0B907B851B911D8A4F1D7030E00
:1009D800AC159E6F000EAD159F6F9E519F11D8B438
:1009E8004BD094C0D9FF95C0DAFF2D0EDF6E42D0F0
:1009F800BEC09EF0BFC09FF0D8909E379F37D8905A
:100A08009E379F37630E9E25F66EFF0E9F21F76E69
:100A18000900F5CF1FF00900F5CF20F00900F5CF48
:100A280021F00A00F5CF22F0B2C01BF0B3C01CF0D1
:100A3800B4C01DF0B5C01EF035EC14F01BC028F092
:100A48001CC029F01DC02AF01EC02BF00A0E2C6E07
:100A5800000E2D6E000E2E6E000E2F6EE6EC14F0BA
:100A68002850300F0001C06F94C0D9FF95C0DAFF3D
:100A7800C0C0DFFF944B952BBE07D8A0BF07BE2987
:100A8800B7E1BF29D8A4B4D796C0F6FF97C0F7FF3F
:100A9800964B972B0800F5CFC0F0C051D8A410EFA3
:100AA80000F094C0D9FF95C0DAFF000EDF6E120087
:100AB80031EC17F0FFEC16F019EC15F046EC17F0D6
:100AC8003EEC17F00C0E75EC15F0C9EC15F00400AF
:100AD800000E1C6EC80E1B6EECEC16F0000E010129
:100AE800426F020E426501D01ED04251B0EC13F0A5
:100AF80080C020F181C021F182C022F183C023F19E
:100B080001014251040D2A0EF324D96E010EF4207E
:100B1800DA6E20C1DEFF21C1DEFF22C1DEFF23C164
:100B2800DEFF422BDED732C129F033C12AF034C1AF
:100B38002BF035C12CF0000E2D6E000E2E6EC80E57
:100B48002F6E420E306E15EC0AF029C03AF12AC019
:100B58003BF12BC03CF12CC03DF1010E256E010E7E
:100B680036EC16F0000E0001946F010E956FA00E82
:100B7800966FFF0E976F3AC198F03BC199F03CC150
:100B88009AF03DC19BF009EC00F0000E296E010EB1
:100B98002A6E4AEC15F02AC129F02BC12AF02CC183
:100BA8002BF02DC12CF0000E2D6E000E2E6EA00E17
:100BB8002F6E410E306E15EC0AF029C03EF12AC0A6
:100BC8003FF12BC040F12CC041F1020E256E010E01
:100BD80036EC16F0000E0001946F010E956FEF0EC3
:100BE800966FFF0E976F3EC198F03FC199F040C1D4
:100BF8009AF041C19BF009EC00F0000E296E010E3D
:100C08002A6E4AEC15F0000E2D6E000E2E6EC80EE0
:100C18002F6E420E306E2EC129F02FC12AF030C13E
:100C28002BF031C12CF015EC0AF029C042F02AC093
:100C380043F02BC044F02CC045F0000E466E000E69
:100C4800476EA00E486E400E496E5FEC0DF042C034
:100C580024F143C025F144C026F145C027F1030E15
:100C6800256E010E36EC16F0000E0001946F010E91
:100C7800956F8B0E966FFF0E976F5FC098F0996B0C
:100C880024C19AF025C19BF026C19CF027C19DF094
:100C980009EC00F0000E296E010E2A6E4AEC15F0E0
:100CA80081B602D0000E606E010E77EC16F01BC004
:100CB80038F11CC039F1040E256E010E36EC16F021
:100CC80053D151EC17F0000E1C6E000E1B6EABECEE
:100CD80016F09D94A090000E0001946F010E956F80
:100CE800E00E966FFF0E976F09EC00F0000E5C6E39
:100CF800000E5B6E5BC0C3F05CC0C4F042D10C0E4A
:100D0800BD6ECA84B190829A9D8438C11BF039C1E6
:100D18001CF0ABEC16F0000E0001946F010E956FFD
:100D2800C20E966FFF0E976F09EC00F0000E5C6E16
:100D3800010E5B6E000E0001C46F000EC36F21D15F
:100D480051EC17F0CA94B180A080000E1C6E000E02
:100D58001B6EABEC16F038C1C1F039C1C2F0060EFB
:100D6800D8900001C137C237E82EFAD7C1C01BF0AE
:100D7800C2C01CF04CEC17F0000E5C6E000E5B6EEF
:100D8800000E0001C46F010EC36F000E946F010EB8
:100D9800956FD10E966FFF0E976F09EC00F0F1D0AA
:100DA800000E5C6E000E5B6E5BC0C3F05CC0C4F0EE
:100DB8003EC188F03FC189F040C18AF041C18BF043
:100DC8003AC18CF03BC18DF03CC18EF03DC18FF033
:100DD800D3EC11F00001D8B066D00C0EBD6ECA84F9
:100DE800B190829A3AC153F03BC154F03CC155F0DE
:100DF8003DC156F03EC12FF03FC130F040C131F047
:100E080041C132F094EC16F02FC04FF030C050F0D2
:100E180031C051F032C052F0BDEC0BF04FC088F039
:100E280050C089F051C08AF052C08BF0E4EC12F047
:100E380088C028F189C029F128C11BF029C11CF0FC
:100E4800000E1E6E640E1D6ED9EC16F01BC021F04C
:100E58001CC022F0000E246E0A0E236EA0EC15F0C2
:100E680021C036F122C037F10101375108E1190ECE
:100E7800365DD8B004D0000E376F190E366F36C104
:100E880021F037C122F0236A246A000EFEEC0FF02D
:100E980021C092F022C093F023C094F024C095F0B2
:100EA80053EC13F055D03AC188F03BC189F03CC1EE
:100EB8008AF03DC18BF03EC153F03FC154F040C1B0
:100EC80055F041C156F05F50216E226A236A246AA8
:100ED800000EFEEC0FF021C02FF022C030F023C02E
:100EE80031F024C032F094EC16F02FC04FF030C02F
:100EF80050F031C051F032C052F0BDEC0BF04FC091
:100F08008CF050C08DF051C08EF052C08FF0D3ECF1
:100F180011F00001D8B01CD0CA94B180A08051EC67
:100F280017F0000E1C6E000E1B6EABEC16F038C1ED
:100F3800C1F039C1C2F0060ED8900001C137C237DE
:100F4800E82EFAD7C1C01BF0C2C01CF04CEC17F059
:100F5800000E0001946F010E956FB20E966FFF0E92
:100F6800976F09EC00F00DD06050000AD8B4A9D6EC
:100F7800010AD8B4C4D6030AD8B4E2D6010AD8B450
:100F88000FD7000E296E010E2A6E4AEC15F0020EDC
:100F9800256E0E0E36EC16F00001C351C411D8A40C
:100FA80007D0FA0E296EFF0E2A6E4AEC15F006D00D
:100FB800FC0E296EFF0E2A6E4AEC15F0020E256E05
:100FC800100E36EC16F05B505C10D8A407D0FA0E61
:100FD800296EFF0E2A6E4AEC15F079D5FC0E296EA3
:100FE800FF0E2A6E4AEC15F072D54A6E4AAE0DD144
:100FF8004A6C4A50800A120FD8A098D0000E246E6E
:101008000A0E236E000E1E6E640E1D6E4A501B6E75
:101018001C6A1BBE1C0676EC14F01BC021F01CC019
:1010280022F0F3EC13F0D89021362236D8902136EE
:101038002236240E2126000E22222F0E2124F66E9F
:10104800FF0E2220F76E0900F5CF2DF00900F5CF2D
:101058002EF00900F5CF2FF00A00F5CF30F0000E82
:10106800246E640E236E4A50216E226A21BE220627
:10107800F3EC13F0D89021362236D8902136223658
:10108800480E2126000E22222F0E2124F66EFF0E76
:101098002220F76E0900F5CF29F00900F5CF2AF0D4
:1010A8000900F5CF2BF00A00F5CF2CF015EC0AF06B
:1010B80029C046F02AC047F02BC048F02CC049F0A0
:1010C80046C029F047C02AF048C02BF049C02CF090
:1010D800000E1E6E0A0E1D6E4A501B6E1C6A1BBE49
:1010E8001C0676EC14F0D8901B361C36D8901B36AC
:1010F8001C362F0E1B24F66EFF0E1C20F76E0900FF
:10110800F5CF2DF00900F5CF2EF00900F5CF2FF01F
:101118000A00F5CF30F015EC0AF029C042F02AC0D9
:1011280043F02BC044F02CC045F012004A50800A0E
:10113800750FD8A055D0000E246E0A0E236E4A50A3
:10114800216E226A21BE2206F3EC13F0D8902136D4
:101158002236D89021362236240E2126000E22224D
:101168002F0E2124F66EFF0E2220F76E0900F5CF10
:1011780029F00900F5CF2AF00900F5CF2BF00A0075
:10118800F5CF2CF0000E1E6E0A0E1D6E4A501B6E17
:101198001C6A1BBE1C0676EC14F0D8901B361C3655
:1011A800D8901B361C362F0E1B24F66EFF0E1C2003
:1011B800F76E0900F5CF2DF00900F5CF2EF00900E4
:1011C800F5CF2FF00A00F5CF30F015EC0AF029C062
:1011D80042F02AC043F02BC044F02CC045F0120066
:1011E8004A50040D2F0EF324F66EFF0EF420F76E0E
:1011F8000900F5CF42F00900F5CF43F00900F5CF1B
:1012080044F00A00F5CF45F012004A50800A120F48
:10121800D8A098D0000E246E0A0E236E000E1E6E03
:10122800640E1D6E4A501B6E1C6A1BBE1C0676ECB3
:1012380014F01BC021F01CC022F0F3EC13F0D8907E
:1012480021362236D89021362236240E2126000E49
:101258002222FB0E2124F66EFE0E2220F76E0900D4
:10126800F5CF2DF00900F5CF2EF00900F5CF2FF0BE
:101278000A00F5CF30F0000E246E640E236E4A503B
:10128800216E226A21BE2206F3EC13F0D890213693
:101298002236D89021362236480E2126000E2222E8
:1012A800FB0E2124F66EFE0E2220F76E0900F5CF04
:1012B80029F00900F5CF2AF00900F5CF2BF00A0034
:1012C800F5CF2CF015EC0AF029C046F02AC047F0FB
:1012D8002BC048F02CC049F046C029F047C02AF07E
:1012E80048C02BF049C02CF0000E1E6E0A0E1D6E71
:1012F8004A501B6E1C6A1BBE1C0676EC14F0D89074
:101308001B361C36D8901B361C36FB0E1B24F66E7B
:10131800FE0E1C20F76E0900F5CF2DF00900F5CF61
:101328002EF00900F5CF2FF00A00F5CF30F015ECBC
:101338000AF029C042F02AC043F02BC044F02CC068
:1013480045F012004A50800A750FD8A055D0000EFB
:10135800246E0A0E236E4A50216E226A21BE22068E
:10136800F3EC13F0D89021362236D8902136223665
:10137800240E2126000E2222FB0E2124F66EFE0EDC
:101388002220F76E0900F5CF29F00900F5CF2AF0E1
:101398000900F5CF2BF00A00F5CF2CF0000E1E6ED9
:1013A8000A0E1D6E4A501B6E1C6A1BBE1C0676EC8C
:1013B80014F0D8901B361C36D8901B361C36FB0E02
:1013C8001B24F66EFE0E1C20F76E0900F5CF2DF0DB
:1013D8000900F5CF2EF00900F5CF2FF00A00F5CF60
:1013E80030F015EC0AF029C042F02AC043F02BC0B7
:1013F80044F02CC045F012004A50040DFB0EF324B3
:10140800F66EFE0EF420F76E0900F5CF42F00900E3
:10141800F5CF43F00900F5CF44F00A00F5CF45F0C9
:1014280012002C50800B356E2C502C243B6E2BBE9A
:101438003B803B50D8B40DD03B28D8A408D0000E30
:10144800296E000E2A6E000E2B6E000E2C6E2B8E4F
:1014580008D0000E296E000E2A6E000E2B6E000EAC
:101468002C6E3050800B351A30503024366E2FBE1B
:1014780036803650D8B40DD03628D8A408D0000EFF
:101488002D6E000E2E6E000E2F6E000E306E2F8EFB
:1014980008D0000E2D6E000E2E6E000E2F6E000E60
:1014A800306E3650D8B403D03B50D8A409D0000EC3
:1014B800296E000E2A6E000E2B6E000E2C6E120086
:1014C8002F502902F3CF40F0F4CF41F04050376E4F
:1014D800386A396A3A6A41503C6E3D6A3E6A3F6AE8
:1014E8002E502A02F3CF40F0F4CF41F04050372677
:1014F800000E382239223A2241503C26000E3D2265
:101508003E223F222D502B02F3CF40F0F4CF41F082
:1015180040503726000E382239223A2241503C26C4
:10152800000E3D223E223F2239C03AF038C039F041
:1015380037C038F0376A2D502A02F3CF40F0F4CF85
:1015480041F04050372641503822000E3922000E13
:101558003A222E502902F3CF40F0F4CF41F0405008
:10156800372641503822000E3922000E3A2239C05F
:101578003AF038C039F037C038F0376A2D502902B0
:10158800F3CF40F0F4CF41F0405037264150382295
:10159800000E3922000E3A222F502A02F3CF40F0D3
:1015A800F4CF41F040503C2641503D22000E3E22EF
:1015B800000E3F222E502B02F3CF40F0F4CF41F023
:1015C80040503C2641503D22000E3E22000E3F2254
:1015D8002F502B02F3CF40F0F4CF41F04050316E42
:1015E8004150326E336A346A33C034F032C033F05B
:1015F80031C032F0316A31503C2632503D223350EE
:101608003E2234503F2237C031F038C032F039C062
:1016180033F03AC034F0190E05D0D8903432333252
:1016280032323132E82EF9D731503C2632503D2241
:1016380033503E2234503F2239C03AF038C039F096
:1016480037C038F0376A36503BC031F0326A31263D
:10165800000E3222820E3124406EFF0E3220416E7F
:101668000FD0D8903C363D363E363F363ABE3C80A9
:10167800D8903736383639363A364006D8A041063B
:101688003EAEEFD7000E366E3AAE16D0FF0E3714C8
:10169800316EFF0E3814326EFF0E3914336E7F0E22
:1016A8003A14346E3150321033103410D8A402D0AA
:1016B8003CA002D0010E366E3650D8B41FD0010EB1
:1016C8003C26000E3D223E223F223FA017D03CC0C0
:1016D80031F03DC032F03EC033F03FC034F0343416
:1016E800343233323232313231C03CF032C03DF024
:1016F80033C03EF034C03FF0404A412A41BE0DD0CD
:10170800415003E14028D8A008D0000E3C6E000EDE
:101718003D6E800E3E6E7F0E20D041BE05D04150FA
:101728000EE14004D8B00BD0000E3C6E000E3D6EAA
:10173800000E3E6E000E3F6E000E356E0FD040C09C
:101748003BF0FF0E3C16FF0E3D167F0E3E16000EB8
:101758003F163BB03E8ED8903B303F6E35503F121F
:101768003CC029F03DC02AF03EC02BF03FC02CF011
:1017780012005250800B576E52505224596E51BE6F
:1017880059805950D8B40DD05928D8A408D0000E83
:101798004F6E000E506E000E516E000E526E518E3E
:1017A80006D0000E4F6E000E506E000E516E000EE9
:1017B800526E5650800B586E57505818D8A4578CF4
:1017C80056505624586E55BE58805850D8B40DD02F
:1017D8005828D8A408D0000E536E000E546E000E80
:1017E800556E000E566E558E06D0000E536E000EC6
:1017F800546E000E556E000E566E5950585CD8B097
:1018080022D057AC02D0800E571A59C05AF058C08F
:1018180059F05AC058F04FC05AF053C04FF05AC050
:1018280053F050C05AF054C050F05AC054F051C050
:101838005AF055C051F05AC055F052C05AF056C02F
:1018480052F05AC056F0000E5A6E59500001806F7F
:10185800816B801F811F804B812B5850826F836B57
:10186800805182278151832383BF2CD0835104E187
:101878001A0E825DD8A026D04F5050105110521029
:10188800D8B402D0010E01D0000E5A6E000E4F6E71
:10189800000E506E000E516E000E526E58C059F078
:1018A80015D05AA005D0D8905A3001095A6E02D0E6
:1018B800D8905A324FB05A8E523452325132503236
:1018C8004F32592A5850595CD8A0EBD757BC29D069
:1018D8005950D8A409D0000E4F6E000E506E000E5D
:1018E800516E000E526E120053504F265450502223
:1018F800555051225650522252A084D05AA006D098
:10190800D8905A325A5001095A6E02D0D8905A3299
:101918004FB05A8E52345232513250324F32592AC5
:1019280071D053504F5C54505058555051585250E4
:10193800800A0001806F5650800A8059D8B036D08E
:101948004FC080F050C081F051C082F052C083F087
:10195800801F811F821F831F802B000E81238223FB
:10196800832353508025846F54508121856F5550AF
:101978008221866F56508321876FFF0E84254F6E14
:10198800FF0E8521506EFF0E8621516EFF0E8721B6
:10199800526E800E571A5A6C5A50D8A40FD0010EA6
:1019A8004F26000E50225122522208D053504F5E2B
:1019B8005450505A5550515A5650525A4F50501030
:1019C80051105210D8A41CD05A50D8A419D0000EC7
:1019D8004F6E000E506E000E516E000E526E1200C9
:1019E800D8904F365036513652365ABE4F805AA08C
:1019F80002D0D88001D0D8905A365950D8A4590668
:101A080051AEEED7000E586E5AAE0BD05AC080F0C9
:101A18007F0E00018017D8A402D04FA002D0010E7B
:101A2800586E5850D8B421D0010E4F26000E5022BF
:101A38005122522252A019D04FC080F050C081F0DC
:101A480051C082F052C083F0000183358333823362
:101A58008133803380C04FF081C050F082C051F094
:101A680083C052F05928D8A4592A5928D8B403D089
:101A78005950D8A40DD0000E4F6E000E506E000EB7
:101A8800516E000E526E5950D8A402D0000E576EF7
:101A980059A002D0518E01D0519ED8905930526E23
:101AA80057BE528E4FC04FF050C050F051C051F049
:101AB80052C052F012004550800B4E6E45504524DE
:101AC800596E44BE59805950D8B40DD05928D8A45D
:101AD80008D0000E426E000E436E000E446E000EDB
:101AE800456E448E06D0000E426E000E436E000E08
:101AF800446E000E456E4950800B4E1A49504924D9
:101B08005A6E48BE5A805A50D8B40DD05A28D8A414
:101B180008D0000E466E000E476E000E486E000E8E
:101B2800496E488E06D0000E466E000E476E000EB7
:101B3800486E000E496E4650471048104910D8A408
:101B480015D0000E426E000E436E000E446E000E5D
:101B5800456E800E44127F0E451242C042F043C0CB
:101B680043F044C044F045C045F012005950D8A491
:101B780011D0000E426E000E436E000E446E000E31
:101B8800456E42C042F043C043F044C044F045C0F3
:101B980045F012005A504A6E4B6A4A1E4B1E4A4A7A
:101BA8004B2A59504C6E4D6A4A504C264B504D2288
:101BB8007F0E4C24536E000E4D20546E42C04FF0E1
:101BC80043C050F044C051F045C052F0000E426E80
:101BD800000E436E000E446E000E456E000E556EEC
:101BE800000E566E000E576E000E586E000E5A6E9E
:101BF80028D05A50D8B411D0D8904F3650365136D4
:101C08005236D890423643364436453658BE42801E
:101C1800D890553656365736583646504F5C47504A
:101C280050584850515849505258D8A009D0588C4B
:101C380046504F5E4750505A4850515A4950525A90
:101C48005A2A190E5A64D5D74F50501051105210B5
:101C5800D8B411D055800FD0D89042364336443688
:101C6800453658BE4280D89055365636573658367F
:101C78005306D8A0540644AEEFD7000E5A6E58AE9D
:101C880016D0FF0E55144A6EFF0E56144B6EFF0EFB
:101C980057144C6E7F0E58144D6E4A504B104C1012
:101CA8004D10D8A402D042A002D0010E5A6E5A504C
:101CB800D8B41FD0010E4226000E432244224522EA
:101CC80045A017D042C04AF043C04BF044C04CF086
:101CD80045C04DF04D344D324C324B324A324AC039
:101CE80042F04BC043F04CC044F04DC045F0534A5D
:101CF800542A54BE10D0545003E15328D8A00BD016
:101D0800000E546E5368000E426E000E436E000EB5
:101D1800446E000E456E54BE05D0545011E1530474
:101D2800D8B00ED0000E546E000E536E000E426EE8
:101D3800000E436E000E446E000E456E000E4E6E91
:101D480053C059F059A002D0448E01D0449ED89077
:101D58005930456E4E50451242C042F043C043F0E0
:101D680044C044F045C045F012004E6E6D0E4E64FE
:101D7800ACD0000E246E0A0E236E000E1E6E640E8A
:101D88001D6E4EC01BF01C6A76EC14F01BC021F0CF
:101D98001CC022F0F3EC13F0D89021362236D890EC
:101DA80021362236240E2126000E22222F0E21242F
:101DB800F66EFF0E2220F76E0900F5CF2DF0090010
:101DC800F5CF2EF00900F5CF2FF00A00F5CF30F04F
:101DD800000E246E640E236E4EC021F0226AF3ECCE
:101DE80013F0D89021362236D89021362236480E64
:101DF8002126000E22222F0E2124F66EFF0E22200D
:101E0800F76E0900F5CF29F00900F5CF2AF009008F
:101E1800F5CF2BF00A00F5CF2CF015EC0AF029C00D
:101E28004AF02AC04BF02BC04CF02CC04DF0000EED
:101E38001E6E0A0E1D6E4EC01BF01C6A76EC14F066
:101E4800D8901B361C36D8901B361C362F0E1B24F8
:101E5800F66EFF0E1C20F76E0900F5CF2DF0090075
:101E6800F5CF2EF00900F5CF2FF00A00F5CF30F0AE
:101E78004AC029F04BC02AF04CC02BF04DC02CF0C2
:101E880015EC0AF029C046F02AC047F02BC048F0EC
:101E98002CC049F046C029F047C02AF048C02BF0B2
:101EA80049C02CF0000E2D6E000E2E6E000E2F6E07
:101EB8003F0E306E15EC0AF029C042F02AC043F0FC
:101EC8002BC044F02CC045F012000A0E4E646BD0B3
:101ED800000E1E6E0A0E1D6E4EC01BF01C6A76ECBC
:101EE80014F0D8901B361C36D8901B361C362F0E93
:101EF8001B24F66EFF0E1C20F76E0900F5CF2DF09F
:101F08000900F5CF2EF00900F5CF2FF00A00F5CF24
:101F180030F0000E246E0A0E236E4EC021F0226AA5
:101F2800F3EC13F0D89021362236D8902136223699
:101F3800240E2126000E22222F0E2124F66EFF0EDB
:101F48002220F76E0900F5CF29F00900F5CF2AF015
:101F58000900F5CF2BF00A00F5CF2CF015EC0AF0AC
:101F680029C04AF02AC04BF02BC04CF02CC04DF0D1
:101F78004AC029F04BC02AF04CC02BF04DC02CF0C1
:101F8800000E2D6E000E2E6E000E2F6E3F0E306E60
:101F980015EC0AF029C042F02AC043F02BC044F0E7
:101FA8002CC045F012004E50040D2F0EF324F66E8F
:101FB800FF0EF420F76E0900F5CF29F00900F5CFE0
:101FC8002AF00900F5CF2BF00A00F5CF2CF0000E0F
:101FD8002D6E000E2E6E000E2F6E3F0E306E15EC1D
:101FE8000AF029C042F02AC043F02BC044F02CC0AC
:101FF80045F01200296E2950D8A424AE1AD021C069
:1020080025F022C026F023C027F024C028F0251E82
:10201800261E271E281E252A000E262227222822B1
:1020280025C02BF026C02CF027C02DF028C02EF09C
:1020380008D021C02BF022C02CF023C02DF024C0E2
:102048002EF02150221023102410D8A409D0000EFD
:10205800216E000E226E000E236E000E246E1200FA
:10206800960E2A6E06D02A2AD8902E322D322C327D
:102078002B32000E2B14256E000E2C14266E000E2B
:102088002D14276EFE0E2E14286E255026102710AC
:102098002810D8B40DD0E7D72A2A010E2B26000E17
:1020A8002C222D222E22D8902E322D322C322B3259
:1020B800000E2B14256E000E2C14266E000E2D1407
:1020C800276EFF0E2E14286E255026102710281074
:1020D800D8B407D0E1D72A06D8902B362C362D361F
:1020E8002E362DBE03D0020E2A60F5D72AB008D0AE
:1020F800FF0E2B16FF0E2C167F0E2D16FF0E2E161A
:10210800D8902A322AC025F0266A276A286A25C06C
:1021180028F0276A266A256A25502B1226502C1289
:1021280027502D1228502E122950D8A424AE01D0A1
:102138002E8E2BC021F02CC022F02DC023F02EC0F3
:1021480024F012001DC023F0246A256A1C342336AB
:1021580001E3248023502B6E2B50D8A409D0000E05
:102168001B6E000E1C6E000E1D6E000E1E6E120001
:1021780021C023F0246A256A2034233601E3248011
:1021880023502A6E2A50D8A409D0000E1B6E000EC8
:102198001C6E000E1D6E000E1E6E12001C8EFF0EB1
:1021A8001B16FF0E1C16000E1D16208EFF0E1F1686
:1021B800FF0E2016000E2116000E266E000E276E4A
:1021C800000E286E000E296E7F0E2B5E2A50980F87
:1021D8002B5E180E2A6ED8902636273628362936D2
:1021E8001F501B5C20501C5821501D58D8A007D0E8
:1021F8001F501B5E20501C5A21501D5A2680D89013
:102208001B361C361D362A2EE6D72BAE16D02B5081
:10221800800A970FD8B009D0000E1B6E000E1C6EF6
:10222800000E1D6E000E1E6E1200D8902932283244
:10223800273226322B3EF9D715D0170E2B640FD034
:10224800000E1B6E000E1C6E000E1D6E000E1E6E24
:102258001200D89026362736283629362B062B50DA
:10226800D8A4F7D726C01BF027C01CF028C01DF043
:1022780029C01EF012001D341E34286E2850D8A420
:1022880009D0000E1B6E000E1C6E000E1D6E000E97
:102298001E6E120021342234276E2750D8A409D08C
:1022A800000E1B6E000E1C6E000E1D6E000E1E6EC4
:1022B80012001D8EFF0E1B16FF0E1C16FF0E1D169C
:1022C800000E1E16218EFF0E1F16FF0E2016FF0E83
:1022D8002116000E2216000E236E000E246E000E2C
:1022E800256E000E266E7F0E285E2750A00F285EF2
:1022F800200E276ED89023362436253626361F50D2
:102308001B5C20501C5821501D5822501E58D8A024
:1023180009D01F501B5E20501C5A21501D5A2250B4
:102328001E5A2380D8901B361C361D361E36272E83
:10233800E1D728AE16D02850800A9F0FD8B009D010
:10234800000E1B6E000E1C6E000E1D6E000E1E6E23
:102358001200D8902632253224322332283EF9D76B
:1023680015D01F0E28640FD0000E1B6E000E1C6EB9
:10237800000E1D6E000E1E6E1200D89023362436F5
:102388002536263628062850D8A4F7D723C01BF0B0
:1023980024C01CF025C01DF026C01EF01200000E3F
:1023A80000018815906F000E8915916F800E8A15AF
:1023B800926F7F0E8B15936F90519111921193111B
:1023C800D8A408D0000E886F000E896F000E8A6F9F
:1023D800000E8B6F000E8C15906F000E8D15916F8F
:1023E800800E8E15926F7F0E8F15936F90519111FD
:1023F80092119311D8A408D0000E8C6F000E8D6F27
:10240800000E8E6F000E8F6F8BAF1DD088C090F0BE
:1024180089C091F08AC092F08BC093F0901F911FF1
:10242800921F931F902B000E912392239323000E4B
:102438009025886F000E9121896F000E92218A6F76
:10244800800E93218B6F8FAF1DD08CC090F08DC004
:1024580091F08EC092F08FC093F0901F911F921F41
:10246800931F902B000E912392239323000E902507
:102478008C6F000E91218D6F000E92218E6F800E51
:1024880093218F6F000E881B000E891B000E8A1B7C
:10249800800E8B1B000E8C1B000E8D1B000E8E1BDE
:1024A800800E8F1B8C51885D8D5189598E518A59A8
:1024B8008F518B59D8B002D0D8901200D880120012
:1024C8000600FACF09F0FBCF0AF0E9CF0BF0EACF0C
:1024D8000CF0E1CF0DF0E2CF0EF0D9CF0FF0DACF4C
:1024E80010F0F3CF11F0F4CF12F0F6CF13F0F7CFCE
:1024F80014F0F8CF15F0F5CF16F065C017F066C0E8
:1025080018F067C019F068C01AF0F2A20FD0030ED5
:10251800086E8A0E076E560EE82EFED7072EFCD7D9
:10252800082EFAD76028030B606EF292F0A21AD038
:10253800030E086E8A0E076E560EE82EFED7072E7B
:10254800FCD7082EFAD7010E5F24016E026A000E2E
:102558000222000E046E050E036EAEEC14F001505C
:102568005F6EF092A1A202D0A192828AA1A002D0AD
:10257800A190829A1AC068F019C067F018C066F076
:1025880017C065F016C0F5FF15C0F8FF14C0F7FFB7
:1025980013C0F6FF12C0F4FF11C0F3FF10C0DAFF3A
:1025A8000FC0D9FF0EC0E2FF0DC0E1FF0CC0EAFF6B
:1025B8000BC0E9FF0AC0FBFF09C0FAFF65921100D2
:1025C80000018A358B35916F9151D8A409D0000E3E
:1025D800886F000E896F000E8A6F000E8B6F1200D5
:1025E80088C08CF089C08DF08AC08EF08BC08FF0C7
:1025F800200E05D0D8908F338E338D338C33E82E50
:10260800F9D78C51906F8A8FFF0E8817FF0E8917A4
:10261800FF0E8A17000E8B17960E915F91AF16D09A
:102628009151800A970FD8B009D0000E886F000E1C
:10263800896F000E8A6F000E8B6F1200D8908B3353
:102648008A3389338833913FF9D715D01F0E9165A6
:102658000FD0000E886F000E896F000E8A6F000E73
:102668008B6F1200D890883789378A378B37910754
:102678009151D8A4F7D79051D8B408D08B1F8A1F8E
:10268800891F886D000E89238A238B2388C088F0D0
:1026980089C089F08AC08AF08BC08BF01200000EC6
:1026A8002D6EC00E2E6E7F0E2F6E440E306E92C0B1
:1026B80029F093C02AF094C02BF095C02CF015ECAB
:1026C8000AF029C042F02AC043F02BC044F02CC0C5
:1026D80045F0000E466E000E476EC80E486E420E5C
:1026E800496E5FEC0DF042C096F043C097F044C0CD
:1026F80098F045C099F0000E536E000E546E000E0F
:10270800556E3F0E566E96C04FF097C050F098C069
:1027180051F099C052F0BDEC0BF04FC088F050C09A
:1027280089F051C08AF052C08BF0E4EC12F088C0F6
:102738009AF089C09BF000019BBF07D0040E9B5DF7
:10274800D8A003D0030E9B6F9A699AC01BF09BC058
:102758001CF0ABEC16F012000001886F00018851E4
:1027680077EC16F01BC089F01CC08AF089C01BF0FA
:102778008AC01CF0000E1E6E050E1D6ED9EC16F0F8
:102788001BC021F01CC022F0000E22BEFF0E236EDB
:10279800246E010EFEEC0FF021C042F022C043F07F
:1027A80023C044F024C045F0000E466EC00E476EAC
:1027B8007F0E486E440E496E5FEC0DF042C084F007
:1027C80043C085F044C086F045C087F084C080F0DF
:1027D80085C081F086C082F087C083F01200000EA9
:1027E800266E24AE06D0236C241ED8B0242A010EEF
:1027F800266E22AE06D0216C221ED8B0222A010EE7
:10280800261A000E286E000E276E23502410D8B406
:102818001CD0010E256E04D0D89023362436252AE4
:1028280024AEFAD7D890273628362350215C245076
:102838002258D8A005D02350215E2450225A278040
:10284800D89024322332252EEDD72650D8B404D080
:10285800276C281ED8B0282A27C021F028C022F0CB
:102868001200000E236E000E246E000E256E000E60
:10287800266E1F50201021102210D8B42AD0010E25
:10288800276E06D0D8901F36203621362236272AC2
:1028980022AEF8D7D89023362436253626361F5050
:1028A8001B5C20501C5821501D5822501E58D8A07F
:1028B80009D01F501B5E20501C5A21501D5A22500F
:1028C8001E5A2380D8902232213220321F32272EDE
:1028D800E1D723C01BF024C01CF025C01DF026C082
:1028E8001EF01200000E206E1CAE06D01B6C1C1EC3
:1028F800D8B01C2A010E206E1EAE04D01D6C1E1E00
:10290800D8B01E2A1D501E10D8B418D0010E1F6E44
:1029180004D0D8901D361E361F2A1EAEFAD71D5079
:102928001B5C1E501C58D8A004D01D501B5E1E50A6
:102938001C5AD8901E321D321F2EF1D72050D8B401
:1029480004D01B6C1C1ED8B01C2A1BC01BF01CC05A
:102958001CF01200000E066E02AE06D0016C021EBC
:10296800D8B0022A010E066E04AE04D0036C041E11
:10297800D8B0042A03500410D8B418D0010E056E3C
:1029880004D0D89003360436052A04AEFAD703508B
:10299800015C04500258D8A004D00350015E0450D2
:1029A800025AD89004320332052EF1D70650D8B413
:1029B80004D0016C021ED8B0022A01C001F002C086
:1029C80002F012002C502D102E102F10D8B424D045
:1029D800010E306E06D0D8902C362D362E362F3676
:1029E800302A2FAEF8D72C50285C2D5029582E505D
:1029F8002A582F502B58D8A008D02C50285E2D507C
:102A0800295A2E502A5A2F502B5AD8902F322E320C
:102A18002D322C32302EE7D728C028F029C029F0D3
:102A28002AC02AF02BC02BF0120084948492000E46
:102A38001C6E190E1B6EECEC16F0010E256E030EC3
:102A4800256401D00BD0030E11EC17F0000E1C6E9C
:102A5800060E1B6EECEC16F0252AF1D7020E11ECCF
:102A680017F0000E256E030E256401D012002550C4
:102A7800010D610EF324D96E000EF420DA6EDF50DA
:102A8800236E000E12EC16F0252AEDD715D029C0BA
:102A9800F6FF2AC0F7FF000EF86E0F0EF76403D09A
:102AA8000800F55005D0F6CFE1FFF7CFE2FFE75079
:102AB80075EC15F0294A2A2A29C0F6FF2AC0F7FF23
:102AC800000EF86E0F0EF76403D00800F55005D01D
:102AD800F6CFE1FFF7CFE2FFE7500009D8B41200C4
:102AE800D6D7286E1ED0010E236E000E12EC16F0FB
:102AF800000E1C6E020E1B6EECEC16F01200020E9D
:102B0800256E010E36EC16F01200100E236E000E24
:102B180012EC16F0120028C023F0010E12EC16F089
:102B280012002850080AD8B4F0D7020AD8B4E7D758
:102B3800060AD8B4D8D7EFD7000E276E000E266E37
:102B480023502410D8B41CD0010E256E04D0D89080
:102B580023362436252A24AEFAD7D89026362736A7
:102B68002350215C24502258D8A005D02350215E40
:102B78002450225A2680D89024322332252EEDD78D
:102B880026C021F027C022F01200290EB16EA082C3
:102B9800000EB36E000EB26E070ECA6E000ECC6E3B
:102BA800090EBA6E0C0EBD6E000EF16EF1CFF0FF7D
:102BB800F0CFF2FFF28CF28EF288F0889D92A0821C
:102BC800A080000EA16EA1CF9EFF9ECFA2FFA2CF34
:102BD8009FFF1200000E00018C1B000E8D1B000EC3
:102BE8008E1B800E8F1B88C04FF089C050F08AC0A2
:102BF80051F08BC052F08CC053F08DC054F08EC091
:102C080055F08FC056F0BDEC0BF04FC088F050C0A7
:102C180089F051C08AF052C08BF01200246E24B0A3
:102C280002D0849401D08484010EC2EC16F0010E07
:102C3800C2EC16F0849223380F0B11EC17F02350D6
:102C48000F0B11EC17F02450D8B405D0320E040045
:102C5800E82EFDD71200000E1C6E020E1B6EECEC67
:102C680016F01200266E09D0800E05D0C00E03D0D3
:102C7800900E01D0D00E276E0DD02550010AD8B481
:102C8800F3D7030AD8B4F2D7010AD8B4F1D7070AA0
:102C9800D8B4F0D72604272627508009236E000EC3
:102CA80012EC16F01200AC0EF66E2E0EF76E000E39
:102CB800F86E00EE61F010EE04F00900F5CFEEFFBB
:102CC800E550E150FAE10001C46BC36B606A5F6ACA
:102CD8005E6A5D6A5C6A5B6A65906592000EF86E72
:102CE80000015CEF05F01F6E1FC01DF01D461D465C
:102CF800C2501D18C30B1D18C26EC282C2B2FED7C5
:102D0800C350C4CF1DF01E6A1DC01EF01D6A1D10E1
:102D1800206E1E50216E20C01BF021C01CF0120036
:102D28002F50301031103210D8B408D0000E2F1A9E
:102D3800000E301A000E311A800E321A2FC02FF0F2
:102D480030C030F031C031F032C032F012001BC058
:102D58001DF01CC01EF0D8901E321D32D8901E32B5
:102D68001D321D50BE6E1BC01DF0030E1D161D3AF0
:102D7800BD501D18CF0B1D18BD6E12001E6E000E23
:102D8800206E000E1F6E03D004001F4A202A1E501A
:102D98001B6E1C6A1F501B5C1C50800A1D6E205045
:102DA800800A1D58D8A01200EFD71B501D02F3CF80
:102DB8001FF0F4CF20F01B501E02F35020261C50A9
:102DC8001D02F35020261FC01BF020C01CF012006B
:102DD800000E1E6E000E1D6E07D0C80E0400040003
:102DE800E82EFCD71D4A1E2A1D501B5C1E501C587D
:102DF800D8A01200F2D7B896000EAC6E190EAF6EBE
:102E0800000EB06EAC84AC8A000EAB6EAB88AB8E95
:102E1800AECF1BF0AECF1BF01200226E22C021F005
:102E2800213A835021180F0B2118836E010EC2EC32
:102E380016F08482040000F0849212001D6E000EC9
:102E48001C6E3A0E1D6005D02F0E1D6402D0010EB7
:102E58001C6E1CC01BF01B301200000EC26E0C0E44
:102E6800C16E9368800E946E9268000E956E000E87
:102E7800966E1200CB68000ECA6E0C0EBD6ECA8428
:102E880094941200000EC26EC280890EC06E1200A9
:102E98001C50BB6E1BC0BCFF1200000EBD6ECA9456
:082EA8008B941200280C0106B6
:10FEFA00000000803F000020410000C84200007A54
:10FF0A004400401C460050C3470024744980961898
:10FF1A004B20BCBE4C286B6E4EF9021550EC78ADE6
:10FF2A0060CAF249710000803FCDCCCC3D0AD7238C
:10FF3A003C6F12833A17B7D138ACC52737BD37861D
:10FF4A003595BFD63377CC2B325F708930FFE6DB2D
:10FF5A002E08E53C1E6042A20D010000000A0000C6
:10FF6A000064000000E803000010270000A08601DA
:10FF7A000040420F008096980000E1F50500CA9AF9
:10FF8A003B48533A2025642048433A25352E3166AA
:10FF9A00202525200A0052543A25352E3166432061
:10FFAA002020204820430A004D443A204155544F0E
:10FFBA0020434F4F4C200A004D443A20434F4F4CA8
:10FFCA0020202020200A004D443A20484541542050
:10FFDA00202020200A004D443A204F4646204D4F0B
:10FFEA004445200A0053503A25352E3166200A002E
:05FFFA004E005900005B
:020000040020DA
:08000000FFFFFFFFFFFFFFFF00
:020000040030CA
:0E000000FF011F1FFF8385FF0FC00FE00F40A1
:00000001FF
